:020000040800F2
:10000000B8FF002045010008792900087B29000875
:100010007F290008832900088729000800000000C4
:100020000000000000000000000000008B29000814
:100030008D290008000000008F2900085D010008DC
:100040005F0100085F0100085F0100085F01000810
:100050005F0100085F0100085F0100085F01000800
:100060005F0100085F0100085F0100085F010008F0
:100070005F0100085F0100085F0100085F010008E0
:100080005F0100085F0100085F0100085F010008D0
:100090005F0100085F0100085F0100085F010008C0
:1000A0005F0100085F0100085F0100085F010008B0
:1000B0005F010008614700086B4800085F01000805
:1000C0005F0100085F0100085F0100085F01000890
:1000D0005F0100089F520008C9290008C372000888
:1000E000C76F0008912900085F0100085F01000840
:1000F0005F0100085F0100085F0100085F01000860
:100100005F0100085F0100085F0100085F0100084F
:10011000054600085F0100085F0100085F01000854
:100120005F0100085F0100085F0100085F0100082F
:10013000DFF80CD008F09EF8004800479D26000824
:10014000B8FF00200648804706480047FEE7FEE764
:10015000FEE7FEE7FEE7FEE7FEE7FEE7FEE7FEE777
:1001600047020008310100080CB500200190009002
:100170006C48006840F480306A49086000BF6948F4
:10018000006800F4003000900198401C0190009835
:1001900018B90198B0F5A06FF1D16248006800F479
:1001A000003010B10120009001E000200090009884
:1001B000012843D15C48006840F010005A490860AB
:1001C0000846006820F0030008600846006840F018
:1001D0000200086053484068524948600846406839
:1001E00048600846406840F48060486008464068BF
:1001F00020F47C1048600846406840F4E8104860ED
:100200000846006840F08070086000BF45480068FC
:1002100000F000700028F9D04248406820F0030048
:10022000404948600846406840F00200486000BF0E
:100230003C48406800F00C000828F9D10CBD10B50E
:10024000FFF792FF10BD10B53648006840F001007E
:1002500034490860084640683449084031494860DC
:1002600008460068324908402E4908600846006880
:1002700020F4802008600846406820F4FE004860B2
:100280004FF41F008860FFF7DAFF4FF00060294944
:10029000086010BD10B5002100200022214B5B68D2
:1002A00003F00C0121B1042906D0082928D107E068
:1002B000214B224C236027E01F4B204C236023E07E
:1002C000184B5B6803F47010164B5B6803F48032C4
:1002D000022303EB904022B9194B4343174C236090
:1002E0000DE0104B5B6803F4003323B1144B434320
:1002F000124C236003E0104B4343104C236003E097
:100300000D4B0E4C236000BF00BF064B5B68C3F370
:1003100003130C4CE15C094B1B68CB40074C23607A
:1003200010BD000000100240002002400000FFF855
:10033000FFFFF6FE08ED00E000127A00000000204A
:1003400000093D000400002031490143314A116099
:10035000704770B5002100230F22C47804B32D4CE0
:10036000246804F4E064C4F5E064210AC1F10403E4
:10037000CA40447804FA03F1847814402143090107
:10038000254C0678A155047804F01F050124AC40E3
:1003900005786D11AD0005F1E025C5F8004109E0D3
:1003A000047804F01F050124AC401C4D067876113A
:1003B00045F8264070BD1A4A0A400243154B1B1FE0
:1003C0001A60704739B1134A121D12680243114B6B
:1003D0001B1D1A6006E00F4A121D126882430D4B66
:1003E0001B1D1A607047042808D14FF0E0210969ED
:1003F00041F004014FF0E022116107E04FF0E021ED
:10040000096921F004014FF0E022116170470000FA
:100410000000FA050CED00E000E400E080E100E0FF
:1004200080FFFF1F10B5012000F0CCFD002000F080
:10043000C9FD10BD2A49086070472949091F086095
:100440007047274984310860704701460020254ADB
:1004500010884FF67F4210400843224A10807047B0
:10046000014600201F4A10884FF680721040084352
:100470001C4A1080704708B500220092194A2C3A95
:100480000092009A02440092009A116008BD08B5DB
:1004900001460020009013482C3800900098084432
:1004A00000900098008808BD0D489C300068C0B2DC
:1004B00070470C480830008840F0010009490831B5
:1004C000088070470648A0300068C0B270470548F1
:1004D0000830008840F00200024908310880704767
:1004E00004860D422C6C004001684FF6FE721140EC
:1004F00001600021016041608160C1608D498842D6
:1005000008D18C490839496841F00F01894A083AF5
:1005100051608AE087491431884208D185490839F9
:10052000496841F0F001834A083A51607DE0814911
:100530002831884208D17F490839496841F47061FF
:100540007C4A083A516070E07A493C31884208D1CF
:1005500078490839496841F47041764A083A51604F
:1005600063E074495031884208D1724908394968BA
:1005700041F470216F4A083A516056E06D49643188
:10058000884208D16B490839496841F47001694AC9
:10059000083A516049E067497831884208D1654995
:1005A0000839496841F07061624A083A51603CE09C
:1005B0006149884206D1011F096841F00F01021FFD
:1005C000116032E05C491431884208D15A49091F50
:1005D000096841F0F001584A121F116025E05649A0
:1005E0002831884208D15449091F096841F47061D3
:1005F000514A121F116018E04F493C31884208D11E
:100600004D49091F096841F470414B4A121F11609E
:100610000BE049495031884207D14749091F096811
:1006200041F47021444A121F1160704710B5002236
:10063000026847F6F0739A430C6A8B6823430C698F
:1006400023434C6923438C692343CC6923434C6A7D
:1006500023438C6A23431A430260CB6843600B68D0
:1006600083604B68C36010BD002101604160816000
:10067000C160016141618161C16101624162816268
:10068000704721B1026842F00102026004E0026892
:100690004FF6FE731A40026070471AB103680B43AD
:1006A000036002E003688B4303607047416070475A
:1006B0000146486880B2704701460020002201F0E0
:1006C00080531BB11C4B083B1A6802E0194B083BD6
:1006D0001A6802EA01030BB1012000E00020704714
:1006E00000F0805119B11449091F086002E0114956
:1006F00008394860704701460020002201F080530D
:100700001BB10D4B083B1A6802E00A4B083B1A6804
:1007100002EA01030BB1012000E00020704700F065
:10072000805119B10449091F086002E001490839E4
:100730004860704708000240080402400020444915
:100740000860091D0860091D0860091D086041480E
:100750003F4914310860704700213D498279002AE1
:100760003AD00A46126803689A430B461A600A1D7B
:10077000126803689A430B1D1A60027911440A68D3
:1007800003681A430A60324A0832126803689A43BF
:100790002F4B08331A601A1D126803689A432C4BBA
:1007A0000C331A604279102A0ED11A1F126803689E
:1007B0001A43274B08331A601A1D126803681A433C
:1007C000234B0C331A600DE02149427911440A6829
:1007D00003681A430A6005E0027911440A68036855
:1007E0009A430A6070470021016001710C21417138
:1007F0000021817170471649103109680143144A7C
:1008000010321160704701460020114A14321268FC
:100810000A400AB1012000E0002070470C49143161
:1008200008607047014600200022094B1B6803EA5C
:100830000102074B14331B680B4013B10AB10120AE
:1008400000E0002070470249143108607047000042
:1008500000040140FFFF0F0010B50446CC4884425D
:1008600008D10121042000F093FB0021042000F0B6
:100870008FFB46E0C748844208D10121082000F0E0
:1008800087FB0021082000F083FB3AE0C248844245
:1008900008D10121102000F07BFB0021102000F086
:1008A00077FB2EE0BD48844208D10121202000F0D2
:1008B0006FFB0021202000F06BFB22E0B84884424F
:1008C00008D10121402000F063FB0021402000F00E
:1008D0005FFB16E0B348844208D10121802000F07C
:1008E00057FB0021802000F053FB0AE0AE48844211
:1008F00007D10121801500F04BFB0021A01500F06D
:1009000047FB10BD10B50121084600F041FB002156
:10091000012000F03DFB10BD2DE9F041024600250D
:100920000026002000230024002791F803C00CF0CB
:100930000F0591F803C00CF0100CBCF1000F03D0B0
:1009400091F802C04CEA050591F800C0BCF1000F17
:1009500031D0146800202BE04FF0010C0CFA00F3AA
:10096000B1F800C00CEA03069E4220D183004FF08C
:100970000F0C0CFA03F7BC4305FA03FC4CEA040421
:1009800091F803C0BCF1280F06D14FF0010C0CFA0E
:1009900000FCC2F814C00AE091F803C0BCF1480F93
:1009A00005D14FF0010C0CFA00FCC2F810C0401C3D
:1009B0000828D1D31460B1F800C0BCF1FF0F34DDBA
:1009C000546800202EE000F1080C4FF0010808FAEE
:1009D0000CF3B1F800C00CEA03069E4221D183005B
:1009E0004FF00F0C0CFA03F7BC4305FA03FC4CEA7A
:1009F000040491F803C0BCF1280F05D100F1080CE4
:100A000008FA0CF8C2F8148091F803C0BCF1480F42
:100A100007D100F1080C4FF0010808FA0CF8C2F8F1
:100A20001080401C0828CED35460BDE8F0814FF6FA
:100A3000FF710180022181700421C170704702465C
:100A4000002093680B400BB1012000E000207047AC
:100A50000146886880B2704702460020D3680B4088
:100A60000BB1012000E0002070470146C86880B249
:100A7000704701617047416170470AB1016100E050
:100A800041617047C16070474FF480320A43826110
:100A90008161826182698269704702460020434B0E
:100AA00018684FF68073184040EA021008433F4B25
:100AB000186070473E49C8617047F0B50A46002388
:100AC00000240021002500F00046B6F1004F02D1BD
:100AD000364EF16901E0354E7168C0F3034583B2CB
:100AE00000F44016B6F5401F08D121F070612F4E7A
:100AF000766826F070662D4F7E6012E000F4801656
:100B0000B6F5801F06D1032606FA05F4A14341F08D
:100B1000706106E0460D360103FA06F6B14341F076
:100B2000706122B1460D360103FA06F6314300F03A
:100B30000046B6F1004F02D11C4EF16101E01B4EA0
:100B40007160F0BD30B500228B071C0F0F2303FA34
:100B500004F2164B08338C1053F824309343134C93
:100B600008348D1044F8253023468C1053F8243077
:100B70008C07240F00FA04F423430C4C08348D1026
:100B800044F8253030BD0A49DC3108607047000068
:100B900000080140000C0140001001400014014019
:100BA00000180140001C01400020014000000140ED
:100BB0000000204210B50121080700F0F6F90021DD
:100BC0004FF0805000F0F1F910BD2A4908627047DB
:100BD00028490861704701460020274A106820F024
:100BE000E0000843106070472249A0310860704758
:100BF00010B502460020204B186820F00300104377
:100C000018601E4B1B6843F004031C4C2360012931
:100C100001D130BF00E020BF184B1B6823F0040354
:100C2000164C236010BD1448006840F004001249BF
:100C300008600846006840F0020008600F4800683D
:100C400040F004000D49086000BF00BF30BF70478E
:100C500001460020084A52680A400AB1012000E01B
:100C6000002070470449096841EA8001024A116086
:100C70007047000000000E420070004010ED00E0E0
:100C8000DF48006840F00100DD4908600846406820
:100C9000DC490840DA49486008460068DA490840FB
:100CA000D74908600846006820F48020086008469C
:100CB000406820F4FE0048604FF41F0088607047D1
:100CC000CF49096821F48031CD4A11601146096885
:100CD00021F480211160B0F5803F03D0B0F5802F62
:100CE0000ED106E0C649096841F48031C44A11605A
:100CF00007E0C349096841F4A021C14A116000E03E
:100D000000BF00BF704710B501460022002300203D
:100D10004A11012A02D1BA4C236806E0022A02D104
:100D2000B74C236A01E0B64C636A01F01F0201244C
:100D300094401C400CB1012000E0002010BD38B5EB
:100D4000002000900024002500BF3120FFF7DBFFCA
:100D500005460098401C00900098B0F5A06F01D0A7
:100D6000002DF2D03120FFF7CEFF08B1012400E0C2
:100D70000024204638BD01460020A14A106820F01A
:100D8000F80040EAC10010607047A0490860704751
:100D9000024600209A4B586820F47C1042EA010376
:100DA0001843974B5860704798490866704701464A
:100DB0000020934A506820F00300084350607047B9
:100DC0008F48406800F00C007047014600208C4AB4
:100DD000506820F0F0000843506070470146002042
:100DE000874A506820F4E06008435060704701462D
:100DF0000020834A506820F4605040EAC1005060EF
:100E0000704729B17E4A527A02437D4B5A7204E000
:100E10007B4A527A82437A4B5A7270477B49D83167
:100E20000860704701460020754A506820F4404031
:100E30000843506070470021714A20321170704A97
:100E400082F82010012802D004280AD104E00121F0
:100E50006B4A2032117005E00521694A2032117079
:100E600000E000BF00BF70476949086070476449EF
:100E7000096A0143624A1162704765494439086052
:100E8000704730B500210022002400235C4D6D68BE
:100E900005F00C0121B1042905D0082923D105E072
:100EA0005C4D056022E05B4D05601FE0544D6D68B0
:100EB00005F47012524D6D6805F48034022505EB7F
:100EC00092421CB9544D554305600BE04C4D6D6882
:100ED00005F400351DB1504D5543056002E04D4D00
:100EE0005543056002E04B4D056000BF00BF444D17
:100EF0006D6805F0F0010909484D6B5C0568DD403F
:100F000045603F4D6D6805F4E061090A434D6B5C37
:100F10004568DD4085603A4D6D6805F46051C90A49
:100F20003E4D6B5C4568DD40C560354D6D6805F430
:100F30004041890B3A4D6B5CC568B5FBF3F5056123
:100F400030BD29B12E4A526902432D4B5A6104E04B
:100F50002B4A526982432A4B5A61704729B1284A69
:100F600092690243264B9A6104E0254A92698243C2
:100F7000234B9A61704729B1214AD2690243204B21
:100F8000DA6104E01E4AD26982431D4BDA61704780
:100F900029B11B4AD2680243194BDA6004E0184AAF
:100FA000D2688243164BDA60704729B1144A12693D
:100FB0000243134B1A6104E0114A12698243104B39
:100FC0001A61704712494039086070470F49C86478
:100FD00070470B49C87170470948406A40F08070FB
:100FE00007494862704701460020054A92680A4056
:100FF0000AB1012000E00020704701498872704763
:10100000001002400000FFF8FFFFF6FE0000424221
:101010008004424200127A0000093D0014000020C2
:101020002400002029B1504A128802434E4B1A80F6
:1010300004E04D4A128882434B4B1A8070474A485D
:10104000001D008840F010004749091D08807047C6
:101050004548001D00884FF6EF7108404249091DC0
:1010600008807047002140481C300188001F00881C
:1010700041EA0040704700B50246FFF7E0FF100C60
:10108000394918310880091D0A80FFF7E1FF00BDCA
:1010900000B50246FFF7D3FFC2F3034032490831DF
:1010A0000880091D0A80FFF7D3FF00BD00B5024686
:1010B000FFF7C5FF100C2C4920310880091D0A805C
:1010C000FFF7C6FF00BD0020274910310988090736
:1010D000080B2549143109880843704700BF22488E
:1010E000001D008800F020000028F8D070471E483E
:1010F000001D00884FF6F77108401B49091D088044
:1011000000BF1948001D008800F008000028F8D032
:10111000704701460020144A121D12880A400AB185
:10112000012000E0002070470F49091D0988814314
:101130000D4A121D11807047014600200A4A121DF7
:1011400012880A40D0B2084A12880A4012B108B187
:10115000012000E0002070470349091D09888143F0
:10116000014A121D118070470028004010B5044646
:10117000BE48844208D101218014FFF709FF0021F5
:10118000A014FFF705FF16E0B948844208D10121F9
:101190000014FFF70AFF00212014FFF706FF0AE002
:1011A000B448844207D10121C013FFF7FEFE00219D
:1011B000E013FFF7FAFE10BD10B50022028802F41A
:1011C00041520B884C8823438C882343CC8823438B
:1011D0000C8923434C8923438C892343CC892343A3
:1011E0001A430280838B4FF2FF74234083830B8A60
:1011F000038210BD2DE9F04F85B005460C464FF037
:10120000000902274FF000084FF0010B0026B246FC
:10121000A88B4FF240010840A88302202884B5F82B
:101220001C90A068022801D100BF38E0A08810B946
:101230004FF0010B01E04FF0020B8D48854200D1C9
:1012400000E000BF6846FFF71CFEDDF800A0E08864
:10125000B0F5007F0AD14FEA1A2000EB8000400071
:10126000A168B0FBF1F0401D86B20BE04FEA4B10D5
:10127000BAFBF0F000EB80004000A168B0FBF1F099
:10128000401D86B20A20B6FBF0F606F00108A6EB78
:101290000800C0F34F074FF6FF7000EA0828022F3E
:1012A00001DBFF2F02DD02274FF00008E08840EA53
:1012B000080038432884A088A1890843618808432E
:1012C0002188084340F4006040EA0909A5F81C9011
:1012D00005B0BDE8F08F0021018041808180C18090
:1012E000018141818181C1810721018270470021F3
:1012F000018041808180C180022181600021818143
:10130000704721B1028842F04002028004E0028866
:101310004FF6BF731A400280704721B1828B42F4AE
:101320008062828304E0828B4FF6FF331A4082830F
:10133000704730B5002400230C110125A540ABB245
:101340001AB185881D43858002E085889D4385808C
:1013500030BD1AB183880B43838002E083888B43BE
:1013600083807047818170470146888970474FF6B6
:10137000FF62914204D0028842F48072028004E04D
:1013800002884FF6FF631A400280704721B18288BD
:1013900042F00402828004E082884FF6FB731A4018
:1013A0008280704702884FF2FF731A4002800288E1
:1013B0000A4302807047018841F4805101807047E0
:1013C00021B1028842F40052028004E002884DF606
:1013D000FF731A400280704702460020012901D0A5
:1013E000108B00E0908A70470146088A7047B1F57B
:1013F000804F04D1028842F48042028004E00288D7
:101400004BF6FF731A400280704702460020138992
:101410000B400BB1012000E000207047CA4302815D
:101420007047F0B50246002000240023002501F09B
:101430000F070126BE40B4B20B1101269E40B3B285
:10144000968806EA03051689264016B10DB10120DB
:1014500000E00020F0BD10B5002201F00F040123D0
:10146000A3409AB2D343038110BD00000030014075
:1014700000380040003C004010B50446FE4884425D
:1014800008D10121C014FFF783FD0021E014FFF70C
:101490007FFDC4E0B4F1804F08D101210846FFF779
:1014A00084FD00210120FFF780FDB8E0F34884426D
:1014B00008D101210220FFF778FD00210220FFF76B
:1014C00074FDACE0EE48844208D101210420FFF70E
:1014D0006CFD00210420FFF768FDA0E0E94884428C
:1014E00008D101210820FFF760FD00210820FFF747
:1014F0005CFD94E0E448844208D101211020FFF70C
:1015000054FD00211020FFF750FD88E0DF488442A1
:1015100008D101212020FFF748FD00212020FFF7FE
:1015200044FD7CE0DA48844208D101214014FFF7F1
:101530002FFD00216014FFF72BFD70E0D548844299
:1015400009D10121C804FFF723FD00214FF4002039
:10155000FFF71EFD63E0D048844209D10121080550
:10156000FFF716FD00214FF48010FFF711FD56E044
:10157000CA48844209D101214805FFF709FD00212D
:101580004FF40010FFF704FD49E0C548844208D13C
:1015900001214020FFF709FD00214020FFF705FD54
:1015A0003DE0C048844208D101218020FFF7FDFCC6
:1015B00000218020FFF7F9FC31E0BB48844208D1CC
:1015C00001218015FFF7F1FC0021A015FFF7EDFCCC
:1015D00025E0B648844209D101210804FFF7D8FC70
:1015E00000214FF48030FFF7D3FC18E0B04884426C
:1015F00009D101214804FFF7CBFC00214FF4003052
:10160000FFF7C6FC0BE0AB48844208D101218804F7
:10161000FFF7BEFC00214FF48020FFF7B9FC10BD9E
:1016200000220288944B98420ED0994B98420BD0DE
:10163000B0F1804F08D0914B984205D0904B984222
:1016400002D0904B984204D14FF68F731A404B88CA
:101650001A438D4B984207D08C4B984204D04FF6DA
:10166000FF431A40CB881A4302808B8883850B88FE
:101670000385814B98420BD0854B984208D08B4B09
:10168000984205D08A4B984202D08A4B984201D1A9
:101690000B7A038601238382704770B500240022F1
:1016A0000023058C4FF6FE7635400584028C838836
:1016B000048B4FF68F752C40B51E2C400D882C43A3
:1016C000751E2A400D892A434D882A436A4DA84237
:1016D0000BD06F4DA84208D0744DA84205D0744D70
:1016E000A84202D0734DA84213D14FF6F7752A4095
:1016F0004D892A434FF6FB752A408D882A434FF6C1
:10170000FF652B404FF6FF552B408D892B43CD892C
:101710002B4383800483CD888586028470BD70B599
:10172000002400220023058C4FF6EF763540058417
:10173000028C8388048B48F6FF752C404FF6FF45DA
:101740002C400D884FF6FF7606EA05252C434FF610
:10175000DF752A400D8906EA05152A434D8806EAF9
:1017600005152A43444DA84202D0494DA8421DD137
:101770004FF67F752A404D894FF6FF7606EA05152C
:101780002A434FF6BF752A408D8806EA05152A437D
:101790004FF6FF352B404FF2FF752B408D8906EA3F
:1017A00085052B43CD8906EA85052B438380048379
:1017B000CD880587028470BD70B500240022002307
:1017C000058C4FF6FF6635400584028C8388848B38
:1017D0004FF68F752C404FF6FC752C400D882C432E
:1017E0004FF6FF552A400D894FF6FF7606EA05258C
:1017F0002A434D8806EA05252A431F4DA84202D0F8
:10180000234DA8421DD14FF2FF752A404D894FF656
:10181000FF7606EA05252A434FF6FF352A408D88D4
:1018200006EA05252A434EF6FF752B404DF6FF7557
:101830002B408D8906EA05152B43CD8906EA05154F
:101840002B4383808483CD888587028470BD70B5E7
:10185000002200230024058C4EF6FF7635400584D7
:10186000038C8488828B48F6FF752A404FF6FF452B
:101870002A400D8820E00000002C014000040040B8
:1018800000080040000C0040001000400014004020
:1018900000340140004C0140005001400054014020
:1018A00000180040001C00400020004000400140A3
:1018B00000440140004801404FF6FF7606EA052546
:1018C0002A434DF6FF752B400D8906EA05352B435B
:1018D0004D8806EA05352B43FA4DA84202D0FA4D51
:1018E000A84208D14BF6FF752C408D894FF6FF7644
:1018F00006EA85152C4384808283CD88A0F8405069
:10190000038470BD828B4FF2FF331A408283828B37
:101910004FF6FF7303EA01231A4382837047F0B541
:101920000C461546002200210026078C4EF6FF7C4F
:1019300007EA0C070784828B018C4FF6FF7707EAD2
:10194000043640F6FF473A404FF6FF7707EA05278F
:101950003A434FF6FF7707EA03373A43D94FB84285
:101960000ED0D94FB8420BD0B0F1804F08D0D74F2E
:10197000B84205D0D64FB84202D0D64FB84206D1B1
:101980004DF6FF77394046F48057394305E047F676
:10199000FF57394044F48057394382830184F0BDB6
:1019A000828B4FF6F3731A408283828B0A438283C1
:1019B0007047F0B50C461546002200210026078C22
:1019C0004FF6FF6C07EA0C070784828B018C4FF6F9
:1019D000FF7707EA04264FF60C773A404FF6FF7779
:1019E00007EA03172F433A43B64FB8420ED0B64F1B
:1019F000B8420BD0B0F1804F08D0B44FB84205D0F8
:101A0000B34FB84202D0B34FB84206D14FF6FF579A
:101A1000394046F48077394305E04FF2FF573940AB
:101A200044F48077394382830184F0BD028B4FF206
:101A3000FF331A400283028B4FF6FF7303EA012340
:101A40001A4302837047F0B50C4615460022002168
:101A50000026078C4FF6EF7C07EA0C070784028B01
:101A6000018C4FF6FF7707EA041640F6FF473A402D
:101A70004FF6FF7707EA03373A434FF6FF7707EA57
:101A800005273A438F4FB8420ED08F4FB8420BD044
:101A9000B0F1804F08D08D4FB84205D08C4FB8427E
:101AA00002D08C4FB84206D14FF6DF77394046F06E
:101AB0001007394305E04FF65F77394044F01007CF
:101AC000394302830184F0BD028B4FF6F3731A4051
:101AD0000283028B0A4302837047F0B50C46154619
:101AE00000220021068C4FF6FE773E400684028BD2
:101AF000018C4FF60C7632407E1C06EA03162E430C
:101B00003243704EB0420ED06F4EB0420BD0B0F1A7
:101B1000804F08D06D4EB04205D06D4EB04202D01D
:101B20006C4EB04206D14FF6FD76314044F00106CE
:101B3000314305E04FF6F576314044F0010631437C
:101B400002830184F0BD70B505460C465D488542B0
:101B50000ED05D4885420BD0B5F1804F08D05B4870
:101B6000854205D05A48854202D05A48854200D164
:101B700000E000BF208850B92389A28861882846E8
:101B8000FFF7ABFFE1882846FFF79EFF25E020889E
:101B900004280AD12389A28861882846FFF753FFC9
:101BA000E1882846FFF742FF17E0208808280AD17D
:101BB0002389A28861882846FFF7FBFEE188284632
:101BC000FFF7EEFE09E02389A28861882846FFF727
:101BD000A6FEE1882846FFF795FE70BD2DE9F0418D
:101BE00005460C4600260127608808B9022600E059
:101BF0000026A088012801D1022700E001272088C3
:101C0000A0B92389A28861882846FFF766FFE1888A
:101C10002846FFF759FF23893A4631462846FFF701
:101C200012FFE1882846FFF701FF13E02389A2880D
:101C300061882846FFF707FFE1882846FFF7F6FE90
:101C400023893A4631462846FFF747FFE188284670
:101C5000FFF73AFFBDE8F0810A884B881A438B886A
:101C60001A43CB881A430B891A434B891A438B8931
:101C70001A43A0F8442070474FF6FF71818000217D
:101C80000180C18041800172704700210180418044
:101C90008180C180018141818181C18170470021A2
:101CA00001804180012181800021C1800181704734
:101CB0000021018041808180C18001814181818139
:101CC00070470000002C0140003401400004004037
:101CD00000080040000C004021B1028842F00102DF
:101CE000028004E002884FF6FE731A4002807047BB
:101CF00031B1B0F8442042F40042A0F8442005E09D
:101D0000B0F84420C2F30E02A0F8442070471AB184
:101D100083890B43838102E083898B4383817047EE
:101D20008182704741EA0203A0F8483070471AB137
:101D300083890B43838102E083898B4383817047CE
:101D400001894FF6F8721140018170470A4600215F
:101D500001894FF68F73194011430181704730B5E7
:101D600004460D4629462046FFF7F0FF208940F043
:101D70000700208130BD2DE9F04104460D4616468E
:101D80001F46602D06D13B46012231462046FFF713
:101D90005AFE05E03B46012231462046FFF79DFEF4
:101DA00029462046FFF7D2FF208940F00700208116
:101DB000BDE8F08130B50C4600210189C9B24FF66B
:101DC000FF7505EA0325154325432943018130BDED
:101DD0002DE9F04105460E46174698460024434635
:101DE0003A4631462846FFF7E5FF2C894FF6F87052
:101DF000044044F007044FF68F70044044F0700430
:101E00002C81BDE8F081F0B504460D4616461F460C
:101E10003B46324629462046FFF7CCFF208940F456
:101E200080402081F0BD0185828270470A460021F2
:101E300001884FF68F731940114301807047F0B548
:101E40000C4615461E460021002200230189028B04
:101E5000038C4FF6F877394021434FF6FC473A4060
:101E600040F201173A434FF6DD773B404FF6FF77DC
:101E700007EA06172F433B43018102830384F0BD29
:101E80000A460021018B4FF68F73194011430183DD
:101E900070470A460021018B48F6FF7319404FF640
:101EA000FF7303EA02231943018370470A460021A6
:101EB000818B4FF68F7319401143818370470A4617
:101EC0000021818B48F6FF7319404FF6FF7303EA38
:101ED000022319438183704721B1028842F08002B6
:101EE000028004E002884FF67F731A400280704738
:101EF00021B1828842F00402828004E082884FF699
:101F0000FB731A408280704721B1828842F0080238
:101F1000828004E082884FF6F7731A40828070470F
:101F200021B1828842F00102828004E082884FF66B
:101F3000FE731A40828070470A460021018B4FF6DB
:101F4000F77319401143018370470A460021018B42
:101F50004FF2FF7319404FF6FF7303EA0223194350
:101F6000018370470A460021818B4FF6F7731940B1
:101F70001143818370470A460021818B4FF2FF7322
:101F800019404FF6FF7303EA022319438183704718
:101F90000A460021018B4FF6FB7319401143018360
:101FA00070470A460021018B4FF6FF3319404FF668
:101FB000FF7303EA02231943018370470A46002195
:101FC000818B4FF6FB7319401143818370470A469A
:101FD0000021818B4FF6FF3319404FF6FF7303EA60
:101FE00002231943818370470A460021018B4FF673
:101FF0007F7319401143018370470A460021018B0A
:10200000C1F30E014FF6FF7303EA02231943018364
:1020100070470A460021818B4FF67F7319401143A8
:10202000818370470A460021818BC1F30E014FF670
:10203000FF7303EA02231943818370470A46002194
:10204000018C4FF6FD7319401143018470470A4615
:102050000021018C4FF6F77319401143018470473A
:102060000A460021018C4FF6DF7319404FF6FF73CB
:1020700003EA02131943018470470A460021018CC8
:102080004FF67F7319404FF6FF7303EA02131943AB
:10209000018470470A460021018C4FF6FF53194016
:1020A0004FF6FF7303EA02231943018470470A467F
:1020B0000021018C4FF2FF7319404FF6FF7303EAC2
:1020C00002231943018470470A460021018C4DF612
:1020D000FF7319404FF6FF7303EA0233194301847B
:1020E000704730B5002301248C40A3B2048C9C437C
:1020F0000484048C02FA01F5ADB22C43048430BD93
:1021000030B5002304248C40A3B2048C9C43048487
:10211000048C02FA01F5ADB22C43048430BD70B5D5
:102120000346002000241846183001258D40ACB22B
:102130001D8CA5431D8409B1082909D100EB61005C
:10214000056825F0700505600568154305600EE01B
:102150000D1FC5F34E052844056825F4E0450560CC
:1021600005684FF6FF7606EA02263543056070BD26
:1021700021B1028842F00202028004E002884FF698
:10218000FD731A400280704721B1028842F00402B8
:10219000028004E002884FF6FB731A400280704709
:1021A00021B1828842F08002828004E082884FF66A
:1021B0007F731A408280704702884FF6F7731A4087
:1021C000028002880A430280704782884FF68F732C
:1021D0001A40828082880A438280704702894FF6C3
:1021E000F8731A40028102890A430281704702890A
:1021F0004FF67F731A40028102890A4302817047B9
:102200008184704781857047818670470187704758
:1022100081877047A0F84010704702884FF6FF434F
:102220001A40028002880A43028070470146888E65
:1022300070470146088F70470146888F70470146F6
:10224000B1F8400070470146888C70470146088D00
:10225000704702460020138A0B400BB1012000E0BA
:1022600000207047CA430282704730B50246002002
:1022700000230024158A05EA0103958905EA010473
:1022800013B10CB1012000E0002030BDCA4302822E
:102290007047000010B50446FB48844209D1012173
:1022A0008803FEF775FE00214FF48040FEF770FEB4
:1022B00032E0F648844209D101214804FEF775FE58
:1022C00000214FF40030FEF770FE25E0F048844214
:1022D00009D101218804FEF768FE00214FF4802017
:1022E000FEF763FE18E0EB48844209D10121C804DF
:1022F000FEF75BFE00214FF40020FEF756FE0BE0D8
:10230000E548844208D101210805FEF74EFE002170
:102310004FF48010FEF749FE10BD2DE9F04786B05E
:1023200005460E460024A24600BFA1460027B089FC
:1023300000B100BF2F462C8A4CF6FF700440F08895
:1023400004432C82AC894EF6F3100440B0883189E6
:102350000843718908430443AC81AC8A4FF6FF40BF
:102360000440B0890443AC8201A8FEF78AFDC64848
:10237000874202D1DDF810A001E0DDF80CA0A889A9
:1023800000F4004040B10AEBCA0000EB0A103168CB
:102390004900B0FBF1F807E00AEBCA0000EB0A10B5
:1023A00031688900B0FBF1F86420B8FBF0F004015B
:1023B0002009642101FB1089A88900F4004040B184
:1023C000322000EBC900B0FBF1F000F0070004433D
:1023D00008E0322000EB09106421B0FBF1F000F0BE
:1023E0000F0004432C8106B0BDE8F0874FF416516E
:1023F000016000218180C18001810C214181002187
:102400008181704710B502460020108A4FF2FF0309
:1024100018400B884C8823438C882343CC88234363
:102420001843108210BD0021018041808180C1804D
:10243000704721B1828942F40052828104E082898E
:102440004DF6FF731A4082817047F0B503460024B1
:1024500000260025002040F66A17B94200D100BFCF
:102460001846C1F3421401F01F06012707FA06F5CA
:10247000012C01D10C3004E0022C01D1103000E01D
:1024800014301AB107682F43076002E00768AF43B2
:102490000760F0BD1AB1838A0B43838202E0838A0E
:1024A0008B4383827047028A4FF6F0731A40028290
:1024B000028A0A430282704782894FF2FF731A40F0
:1024C000828182890A438281704721B1828942F0E8
:1024D0000202828104E082894FF6FD731A408281F4
:1024E0007047028A4FF6DF731A400282028A0A435B
:1024F0000282704721B1028A42F48042028204E0E3
:10250000028A4BF6FF731A4002827047C1F3080239
:102510008280704701468888C0F30800704781892F
:1025200041F0010181817047028BD2B20283028B9C
:1025300042EA012202837047028B02F47F42028347
:10254000028B0A430283704721B1828A42F0200243
:10255000828204E0828A4FF6DF731A4082827047DB
:1025600021B1828A42F01002828204E0828A4FF610
:10257000EF731A408282704721B1828A42F00802CA
:10258000828204E0828A4FF6F7731A408282704793
:1025900021B1828942F40042828103E08289C2F340
:1025A0000E028281704721B1828A42F400628282E7
:1025B00004E0828A4FF2FF731A4082827047828A57
:1025C0004FF6FB731A408282828A0A4382827047E6
:1025D00021B1828A42F00202828204E0828A4FF6AE
:1025E000FD731A408282704702460020B1F5007FD9
:1025F00000D100BF13880B400BB1012000E0002088
:10260000704701F40072B2F5007F00D100BFCA43E9
:102610000280704770B50246002400230025002088
:1026200040F66A16B14200D100BFC1F3421501F075
:102630001F03012606FA03F3012D02D196893340C8
:1026400006E0022D02D1168A334001E0968A33401B
:102650000C12012606FA04F41688344013B10CB1AA
:10266000012000E0002070BD10B50022002340F6DC
:102670006A14A14200D100BF0A1201249440A3B2FF
:10268000DC43048010BD00000038014000440040DD
:1026900000480040004C004000500040A2B04FF005
:1026A00001080025002600270DF1040904F003FCB1
:1026B00004F062FB04F0CAFB04F092FC04F06EFC30
:1026C0004FF4E13002F09FFD4FF4E13004F0C8FC1C
:1026D0004FF4E13001F0EBFF4FF4E16004F089FBCF
:1026E000FDE0642004F085FB04F0D6FBFDF7ABFDB4
:1026F00004F042FB04F074FC4FF480517848FEF77C
:10270000BAF904F0A3FB04F049FC02F0E5F802F08A
:1027100047F84FF4E13002F076FD4FF4E13004F079
:102720009FFC4FF4165001F0C2FF00F0A0FD10B165
:102730006CA005F005FE002606E0761C052E03DBE6
:102740006CA005F0FDFD0BE04FF400516E48FEF764
:1027500076F928B96DA16FA004F0C7FF0028ECD06E
:1027600000BF002002F0F7FD4FF45041002002F0BE
:10277000B4FE6C4908601E21002002F0AEFE044643
:1027800014B16848006828B967A005F0D9FDC820D1
:1027900004F02FFB002706E07F1CC82004F029FB73
:1027A000052F00D103E000F011FF0028F4D100BF95
:1027B00093E0FDF748FD00F01FF900F057F94FF4E2
:1027C0000010FDF78DFF012240215C48FFF762FEFB
:1027D0004FF001086FE04FF40010FDF76DFF012886
:1027E00056D157480078552800D067E055A005F02D
:1027F000A7FD00F0AEFB01284AD11CA800F07DFC2B
:1028000002F083F80020504908705049087041F6E2
:102810001F4141F2873001F0FBFF05E001F0D3FFDB
:10282000012801D149490870484800780028F5D0AE
:1028300002F072F800214648FFF74EFA434800784C
:10284000012803D143A005F07BFD37E000BF4548D8
:10285000008800F400400028F9D04349484601F0C0
:10286000A3FD484601F0B8FD00203E490880002540
:102870000CE02A466D1C3DA1204605F071FD204666
:1028800000F0DDFD4FF47A7004F0B3FA0A2DF0DBAE
:102890004FF40010FDF724FF642004F0AAFA4FF46F
:1028A00000511948FEF7CBF8012804D14FF0000879
:1028B000642004F09EFAB8F1000F8CD100BF4FF4F1
:1028C00000511148FEF7BBF8012806D129480068DD
:1028D00020F001002749086000E06AE700BF00E738
:1028E000001401400D0A5344BFA84552524F520DE7
:1028F0000A00000047505253CDF8C2E7D7B4CCAC21
:10290000B4EDCEF30D0A0000001001403636363625
:10291000000000003132332E3230372E3132342E67
:1029200034390000380000200D0AC4DAB4E6B7D606
:10293000C5E4CAA7B0DC210D0A0000000044004035
:1029400090000020620000003E00002028000020CF
:10295000000800406E6F74206163636964657421D0
:102960000D0A00003C0000201403002025642E6A9C
:102970007067000000040140704700BFFEE700BF21
:10298000FEE700BFFEE700BFFEE7704770477047F5
:1029900010B50220FEF7D0FBA8B140F6FF70134936
:1029A00008604FF40030FDF74EFF0120FEF750F9AC
:1029B00010B10120FEF756F9FEF790FB0220FDF75B
:1029C00042FFFEF78BFB10BD10B5002440F22551ED
:1029D0000748FFF71FFE38B10548FFF79BFDC2B25D
:1029E0002046641C03490A5410BD00000C0C014031
:1029F000004400407C00002000B585B00121042087
:102A0000FEF7ACFA01214804FEF7B5FA0420ADF850
:102A1000100018208DF8130003208DF8120004A96F
:102A2000FE48FDF779FF0820ADF8100004208DF86E
:102A3000130004A9F948FDF76FFF4FF4E13000904F
:102A40000020ADF80400ADF80600ADF80800ADF8C0
:102A50000C000C20ADF80A006946F148FFF75DFC58
:102A60000121EF48FFF7E5FC05B000BD00B58BB0D4
:102A700001210846FEF765FAE948001D0090E94883
:102A800001900020029021200390002004908020DB
:102A900005900020069007902020089000020990E1
:102AA00000200A906946E048FDF7C0FD0121DE489C
:102AB000FDF7E7FD0BB000BD2DE9F05F4FF0000B17
:102AC0003EE00BEB4B0000EBCB00401CD549085C13
:102AD000512833D14FF0000A2BE0022101EB4A01CB
:102AE0000BEB4B0202EBCB021144CE4A525C4FEA95
:102AF0004A01C91C0BEB4B0303EBCB031944C94B35
:102B0000595C42EA012108B205F00CFA8046002225
:102B1000C64B05F08AF906460022C54B05F013F9AD
:102B2000044605F069FAC34941F82A000AF1010098
:102B30008246BAF1030FD0DBBDE8F09F0BF1010B29
:102B4000BBF1030FBDDB00BFF6E72DE9F05F4FF0EF
:102B5000000B3EE00BEB4B0000EBCB00401CB149FF
:102B6000085C522833D14FF0000A2BE0022101EB20
:102B70004A010BEB4B0202EBCB021144A94A525C17
:102B80004FEA4A01C91C0BEB4B0303EBCB0319447F
:102B9000A44B595C42EA012108B205F0C3F9804612
:102BA0000022A24B05F041F906460022A24B05F097
:102BB000CAF8044605F020FAA04941F82A000AF1B3
:102BC00001008246BAF1030FD0DBBDE8F09F0BF1A4
:102BD000010BBBF1030FBDDB00BFF6E72DE9F05F92
:102BE0004FF0000B3EE00BEB4B0000EBCB00401C2A
:102BF0008C49085C532833D14FF0000A2BE00221A6
:102C000001EB4A010BEB4B0202EBCB021144854A6C
:102C1000525C4FEA4A01C91C0BEB4B0303EBCB039D
:102C20001944804B595C42EA012108B205F07AF957
:102C3000804600227D4B05F0F8F806460022804BC6
:102C400005F081F8044605F0D7F97E4941F82A00DD
:102C50000AF101008246BAF1030FD0DBBDE8F09F14
:102C60000BF1010BBBF1030FBDDB00BFF6E72DE954
:102C7000F047074688461546002418E0002045F82E
:102C80002400002610E006EB4602224457F82210EA
:102C900058F8260004F040FF814655F8241004F04F
:102CA000E3FE45F82400761C032EECDB641C032CA9
:102CB000E4DBBDE8F0872DE9F04F87B004460D4610
:102CC00016469946DDF840B0284605F069F900221D
:102CD0005B4BCDE9000105F0A8F807465A4A5B4B6B
:102CE00005F031F8CDE9020105F086F90690069865
:102CF00005F056F9CDE9020106F040FB074605F064
:102D00007BF90590069805F04BF9074606F0E6FAC0
:102D1000CDE9020105F070F98246504605F040F910
:102D2000074600224A4B05F00BF8CDE9020105F0F9
:102D300063F904903146049804F0EEFE8046314673
:102D400004F0EAFE0746514604F08EFE2060594624
:102D5000059804F0E1FE31460390049804F0DCFE8F
:102D60008046494604F0D8FE0746039904F07CFEED
:102D700060604946059804F0CFFE31460390049800
:102D800004F0CAFE8046594604F0C6FE0746039981
:102D900004F0BCFEA0605946059804F0BDFE8046D4
:102DA0003146049804F0B8FE4946039004F0B4FE9E
:102DB0000746414604F0AAFEE0604946049804F044
:102DC000ABFE8046494604F0A7FE0746514604F094
:102DD0004BFE20613146059804F09EFE4946039063
:102DE000049804F099FE8046594604F095FE074683
:102DF000039904F039FE60614946059804F08CFEA1
:102E000031460390049804F087FE8046594604F04A
:102E100083FE0746039904F027FE1BE000080140EB
:102E200000440040900000206C0002400000E040A0
:102E300000003040D800002000409F40C00000202B
:102E400000806640B40000204AD8124DFB210940A2
:102E50000000F03FA0613146059804F05DFE494650
:102E60000390049804F058FE8046594604F054FE3E
:102E70000746039904F04AFEE0615946049804F0BD
:102E80004BFE8046594604F047FE0746514604F083
:102E9000EBFD206207B0BDE8F08F30B58DB0242186
:102EA00004A804F0B4FD002445E0002504E000205F
:102EB00001A941F825006D1C032DF8DB4FF07E5071
:102EC00001A941F8240000200090544800234FF04D
:102ED0007E52016804A8FFF7EEFE514A01A904A83A
:102EE000FFF7C5FE002000904C484FF07E530022B3
:102EF000416804A8FFF7DFFE01AA494904A8FFF7CB
:102F0000B6FE4FF07E500090444800231A46816878
:102F100004A8FFF7D0FE424A01A904A8FFF7A7FEC4
:102F20003F4A91683F4A52F8240004F0EFFD3D49C2
:102F300041F82400641C032CB7DB0DB030BD10B584
:102F4000FFF7BAFDFFF74AFEFFF7FFFDFFF7A5FF0A
:102F500010BD2DE9F84FFFF7F2FF3249086805F080
:102F60001FF821F00041064600222F4B05F02CF8F7
:102F700017D32C49486805F013F821F000410646A4
:102F80000022294B05F020F80BD32649886805F06C
:102F900007F821F0004106460022234B05F014F803
:102FA0002CD2204A9168906804F0B6FD1D4A00902A
:102FB0005168506804F0B0FD82461A4A11681068E2
:102FC00004F0AAFD8346514604F04EFD8146009967
:102FD00004F04AFD064604F0E3FF04460D460746AA
:102FE00000224FF0804304F0EFFF15D222462B461B
:102FF0000EA005F0A5F90120BDE8F88F0C498868FE
:1030000004F0CEFF21F0004106460022094B04F0F7
:10301000DBFF01D20120EFE70020EDE7B400002044
:10302000CC000020D80000200000F03F2566000002
:10303000C00000200000894038B5002000905BE00F
:1030400066A005F07DF900BF664806F095F9C4B2A8
:103050006F2CF9D1214664A005F072F98DF800407B
:10306000604806F089F9C0B28DF801009DF80110A2
:103070005DA005F065F99DF801006B283BD159482A
:1030800006F07AF9C0B28DF800009DF8001056A045
:1030900005F056F9534806F06FF9C0B28DF80100FB
:1030A0009DF8011050A005F04BF900208DF80200AA
:1030B0009DF80000612813D19DF8010063280FD10D
:1030C000484806F059F9C5B2294647A005F038F935
:1030D000302D00D010E045A005F032F9012038BDB8
:1030E0009DF80000772805D19DF80100742801D1D2
:1030F0000020F4E700E000BFA2E72DE9F047814699
:10310000002403E0622009F8010B641C032CF9DBA6
:1031100000244FE0384951F82400002104F088FFD2
:103120000ED2354850F8240080F00040324941F872
:1031300024003248407804EB440109F8110005E00E
:103140002E48007804EB440109F811002A4951F88F
:1031500024002B4904F0E0FC274941F824004FF0FB
:10316000050A23E0244951F8240004F0ECFE0A216A
:1031700090FBF1F201FB12002049085C04EB4401D2
:1031800009EB410101F80A001B4951F8240004F041
:1031900007FF074600221B4B04F047FE054604F0DC
:1031A0002BFF154941F82400AAF1010ABAF1010FD9
:1031B000D8DA641C032CADDBBDE8F08710B50446FB
:1031C00021461148FFF7A2F900BF40F225510E48F1
:1031D000FFF720FA0028F8D1204610BD6161610A8E
:1031E0000000000074000020256300007375636315
:1031F000657373210D0A0000D8000020290000200B
:1032000000007A44000024400044004000B589B02A
:1032100000221E4801681E4803F025F9002821D12C
:103220001CA005F08DF8132220A1684603F046F992
:10323000002810D121A005F083F827A1684603F0EB
:1032400060FC002803DD28A005F07AF806E02DA038
:1032500005F076F802E030A005F072F8684603F059
:10326000A9FB02E031A005F06BF809B000BD10B574
:10327000012206480168064803F0F5F820B12FA0A6
:1032800005F05EF8012010BD0020FCE734000020AE
:10329000E40000204D6F756E7420534420737563F5
:1032A0006365737366756C6C790D0A00746573746D
:1032B00066696C652E747874000000004F70656E4E
:1032C0002066696C65207375636365737366756CDE
:1032D0006C792E0D0A00000048656C6C6F2C576FDE
:1032E000726C64210A000000507574732066696C6A
:1032F00065207375636365737366756C6C792E0DE9
:103300000A000000507574732066696C6520666160
:10331000696C65642E0D0A004F70656E2066696CDD
:1033200065206661696C65642E0D0A004D6F756ECF
:1033300074206661696C65640D0A00004D6F756EDE
:1033400074205344206661696C65642E0D0A000088
:1033500010B5002400BF0AE0FA4A02EB440251789B
:10336000F84A12F8140001F0EDFE601C84B20E2C35
:10337000F2D310BD2DE9F04104460D46E11704EBF0
:1033800091718910A4EB810111B10120BDE8F08198
:10339000E91705EB91718910A5EB810109B10220B4
:1033A000F4E72046E11704EB9171C1F38F0728463B
:1033B000E91705EB9171C1F38F060021FF2001F0A1
:1033C000C1FE0421E02001F0BDFEF9B25A2001F057
:1033D000B9FEF1B25B2001F0B5FEC7F3012804206D
:1033E00000EAA61040EA080841465C2001F0AAFE67
:1033F0000021E02001F0A6FE0020C7E710B5002460
:1034000000BF0AE0D04A02EB44025178CE4A12F8DB
:10341000140001F097FE601C84B2082CF2D3002443
:103420000AE0CA4A02EB44025178C84A12F8140072
:1034300001F088FE601C84B2072CF2D310BD2DE988
:10344000F8438146002400252421002002F045F89D
:10345000074617B9FF20BDE8F883FFF7CFFF4FF409
:1034600070714FF4A060FFF785FF0021FF2001F08D
:1034700069FE2321D32001F065FE0121FF2001F028
:1034800061FE0121112001F05DFE00240AE000BF71
:10349000AF4800680128FBD000BFAD480068002895
:1034A000FBD0641C0A2CF2D314E00FE000BFA94843
:1034B00000680028FBD0A8488068A84909684855DA
:1034C00000BFA44800680128FBD06D1CA448006818
:1034D0000028EBD19E4800680128E6D00622494624
:1034E000384602F0EBFF8046B8F1000F29D129469B
:1034F0009CA004F025FF99480668002408E0305D90
:10350000FF2804D1601C305CD82800D102E0641C84
:10351000AC42F4D300BFAC4202D14FF0FD0810E042
:1035200026442A1B6B463146384603F021F9804673
:10353000281B0099884201D04FF0FE088EA004F0AD
:10354000FFFE384603F036FA0A218448006804F08A
:1035500012F8012806D18BA004F0F2FE642003F0DB
:1035600048FC02E08BA004F0EBFE04F03FF8FFF70C
:10357000EFFE3946002001F0A0FF40466BE770B532
:1035800003240F250021FF2001F0DCFD2946D32074
:1035900001F0D8FD0121FF2001F0D4FD21461120CA
:1035A00001F0D0FD70BD014649067E4A926942F0A5
:1035B00001027C4B9A617C4A526822F0E0627A4BAD
:1035C0005A601A4652680A435A60704738B5002557
:1035D000012140F23910FDF7C1FC1020ADF80000C8
:1035E00048208DF8030003208DF8020069466F48DB
:1035F000FDF792F910216D48FDF73BFA0820ADF870
:10360000000010208DF8030069466848FDF784F932
:1036100008216648FDF72DFAFF20ADF8000048208C
:103620008DF8030069464C48FDF776F94020ADF867
:10363000000048208DF8030069465D48FDF76CF9ED
:1036400040215B48FDF715FA4FF40040ADF800004B
:1036500010208DF8030069465648FDF75DF94FF4D8
:1036600000415448FDF705FA4FF48040ADF80000E2
:1036700048208DF8030069464E48FDF74DF94FF498
:1036800080414C48FDF7F5F901214B48FDF715FA4B
:10369000002030497C3108600A2003F0AAFB00209A
:1036A0004649C1F8BC010A2003F0A3FB01202C49C4
:1036B0008431086001F04EFC0121FF2001F042FD41
:1036C0008021122001F03EFD322003F092FB1C20ED
:1036D00001F057FD04464FF6FF7000EA04241D2058
:1036E00001F04FFD044347F6A270844205D0214605
:1036F00033A004F025FE012038BD0A2001F041FD71
:1037000004464FF6FF7000EA04240B2001F039FD57
:10371000044342F24260844203D021462BA004F0CD
:103720000FFE00250AE02C4A02EB450251782A4A96
:1037300012F8150001F006FD681C85B2B22DF2D317
:103740000020D9E700970008E2960008F2960008EA
:1037500018812242108121420010014038000020CF
:10376000380124426A70656720646174612073695E
:103770007A653A25640D0A00C5C4D5D5B3C9B9A682
:1037800000000000B7A2CBCDB3C9B9A6A3A10D0A12
:103790000D0A0000B7A2CBCDCAA7B0DCA3A10D0AC9
:1037A0000D0A00000010024000000140000C014022
:1037B00000140140002001400002300000002442BB
:1037C0004D49443A25640D0A000000004849443A36
:1037D00025640D0A000000001C94000870B5054621
:1037E000F34800EBC506002409E0012202EB440285
:1037F000B15C16F8140001F0A5FC601CC4B2042CE6
:10380000F3DB70BD2DE9F04104465E2541265427C7
:1038100034B1022C0ED0032C10D0042C16D111E0A0
:103820000021FF2001F08EFC0021C72001F08AFC5E
:10383000BDE8F081652541264F2707E05225412646
:10384000662703E042253F26712700BF00BF002105
:10385000FF2001F077FC4021C72001F073FC2946CE
:10386000CC2001F06FFC3146CD2001F06BFC3946D5
:10387000CE2001F067FC00BFDAE770B50446A01C5B
:10388000082141EA0010C5B20021FF2001F05AFCD6
:1038900000217C2001F056FC02217D2001F052FC29
:1038A00003217C2001F04EFC29467D2001F04AFCDA
:1038B00029467D2001F046FC70BD10B5044600216C
:1038C000FF2001F03FFC00217C2001F03BFC0421A3
:1038D0007D2001F037FC09217C2001F033FC20071A
:1038E000010E7D2001F02EFC00217D2001F02AFC3C
:1038F00010BD70B504462025202634B1012C07D018
:10390000032C08D0042C0CD108E01825342608E03C
:103910001C252A2605E02425162602E028250C264B
:1039200000BF00BF0021FF2001F00CFC00217C2023
:1039300001F008FC04217D2001F004FC07217C201B
:1039400001F000FC20217D2001F0FCFB29467D20B8
:1039500001F0F8FB31467D2001F0F4FB06217D20CB
:1039600001F0F0FB70BD2DE9F041044600258026F2
:103970008027072C19D2DFE804F0180406080C1081
:103980001400402511E018250FE018254026C02717
:103990000BE018254026402707E01825A0264027E1
:1039A00003E018254026A62700BF00BF0021FF2006
:1039B00001F0C8FB00217C2001F0C4FB29467D20DA
:1039C00001F0C0FB05217C2001F0BCFB31467D20CD
:1039D00001F0B8FB39467D2001F0B4FBBDE8F08171
:1039E00070B505460121FF2001F0ACFB122001F06B
:1039F000C8FB044624F002040DB144F00204214641
:103A0000122001F09FFB70BD2DE9F04705460E46E0
:103A100017469846384607EBD07105EB61011FFA4F
:103A200081F9404608EBD07106EB61011FFA81FA7B
:103A30000121FF2001F086FB032001F0A2FB0446D8
:103A400004F0F0040AF00301304661F39F000443E0
:103A50002146032001F076FBC6F38701192001F00F
:103A600071FBCAF387011A2001F06CFB322001F0D0
:103A700088FB044604F0C00409F00701284661F3FE
:103A8000DF0004432146322001F05CFBC5F3C7018F
:103A9000172001F057FBC9F3C701182001F052FBB2
:103AA000BDE8F0872DE9F0478046894614461D465B
:103AB000E11704EB91718910A4EB810111B1012090
:103AC000BDE8F087E91705EB91718910A5EB81013D
:103AD00009B10220F4E72046E11704EB9171C1F32C
:103AE0008F062846E91705EB9171C1F38F0A002173
:103AF000FF2001F027FB0421E02001F023FBF1B2BD
:103B0000512001F01FFB0AF0FF01522001F01AFBC7
:103B100008F0FF01532001F015FB09F0FF015420CC
:103B200001F010FB802000EA6A07702000EA2910EB
:103B30000743082000EA66100743C8F30220074342
:103B40003946552001F0FEFA802000EAA6015720F0
:103B500001F0F8FA0021E02001F0F4FA0020AFE7CC
:103B600070B504460D460021FF2001F0EBFA042158
:103B7000E02001F0E7FAC4F3C701C02001F0E2FA47
:103B8000C5F3C701C12001F0DDFA6007860E05F01C
:103B900007000643802000EA2410064331468C20AB
:103BA00001F0D0FA0021E02001F0CCFA002070BD35
:103BB0001C9700080246134610E010782A2805D00A
:103BC0001078202802DB10787A2801DDFF2070476A
:103BD00010782C2801D1481EC1B2521C0029ECD10A
:103BE000D01AC0B2F3E710B50246012000E05043FE
:103BF0000B00A1F10104E1B2F9D110BD2DE9F34FA1
:103C000081B007463C46002000908346814600264E
:103C1000804628E020782D2802D148F00208641C54
:103C200020782C2802D020782A2800D11CE0207887
:103C30002E2803D148F00108641C09E020783928B7
:103C400002DC2078302803DA4FF0000900260BE070
:103C500008F0010010B1701CC6B203E009F10100C8
:103C600000F0FF09641CD5E700BF08F0020000B1B6
:103C70007F1C00250EE0A9F10100401BC1B20A2003
:103C8000FFF7B1FF795D3039009A00FB0120009009
:103C9000681CC5B24D45EEDB052E00DD05260298F9
:103CA000067000250EE0701E401BC1B20A20FFF70F
:103CB0009AFF09F101012944795C303900FB01BB0D
:103CC000681CC5B2B542EEDB31460A20FFF78BFF18
:103CD000009901FB00BA08F0020008B1CAF1000A1D
:103CE0005046BDE8FE8F2DE9F04F85B0044688466A
:103CF000F7A1404603F096FE074601213846FFF73C
:103D000059FF0546FF2D23D0781904A9FFF776FF48
:103D100082469DF810100A20FFF765FFBAFBF0F607
:103D200042F21070B6FBF0F0C1B2412001556420A0
:103D3000B6FBF0F06421B0FBF1F201FB120142206E
:103D400001556420B6FBF0F100FB116143200155E1
:103D500003213846FFF72EFF0546FF2D43D0781983
:103D600004A9FFF74BFF06469DF81000801CC1B266
:103D70000A20FFF738FFB6FBF0F060649DF81000F2
:103D8000801CC1B20A20FFF72EFFB6FBF0F100FB4A
:103D9000116A504604F0C1F881469DF81000C0F148
:103DA0000500C1B20A20FFF71EFF009004F0B5F82D
:103DB0008346494603F0B0FE8246C74903F0DEFE63
:103DC000052102900A20FFF70EFF616C00FB01FA4B
:103DD000504604F0A2F80190029903F045FE0390CA
:103DE00004F0CAF8606404213846FFF7E3FE054694
:103DF000FF2D02D0785D84F8480005213846FFF792
:103E0000D9FE0546FF2D45D0781904A9FFF7F6FE27
:103E100006469DF81000801CC1B20A20FFF7E3FEA1
:103E2000B6FBF0F044F8490F9DF81000801CC1B2B9
:103E30000A20FFF7D8FEB6FBF0F100FB116A5046EE
:103E400004F06BF881469DF81000C0F10500C1B286
:103E50000A20FFF7C8FE009004F05FF88346494649
:103E600003F05AFE82469C4903F088FE0521029029
:103E70000A20FFF7B8FE216800FB01FA504604F063
:103E80004CF80190029903F0EFFD039004F074F8F0
:103E900044F8490906213846FFF78CFE0546FF2DF8
:103EA00002D0785D84F84D0009213846FFF782FE84
:103EB0000546FF2D1ED0781904A9FFF79FFE064680
:103EC00042F21070B6FBF0F0C1B240200155642000
:103ED000B6FBF0F06421B0FBF1F201FB12013F20D0
:103EE00001556420B6FBF0F100FB116000F5FA60AB
:103EF000A4F83D0005B0BDE8F08F2DE9FC5F074652
:103F00008A464FF00008CDF804A074A1019803F090
:103F100089FD0646F079303800F0FF0B032130466A
:103F2000FFF748FE0546FF2D04D070196946FFF7DC
:103F300065FE38704FF000096CE068A1019803F04D
:103F400071FD064600245CE0042000EB8400C1B251
:103F50003046FFF72FFE0546FF2D09D07019694640
:103F6000FFF74CFEC1B208EB8802781C815400E0D8
:103F700049E0052000EB8400C1B23046FFF71AFE8D
:103F80000546FF2D0AD070196946FFF737FEC1B20A
:103F900008EB8802781C1044417000E033E00620F2
:103FA00000EB8400C1B23046FFF704FE0546FF2D4A
:103FB0000AD070196946FFF721FE81B208EB88022A
:103FC000781C1044418000E01DE0072000EB8400D5
:103FD000C1B23046FFF7EEFD0546FF2D0AD070193D
:103FE0006946FFF70BFEC1B208EB8802781C10444B
:103FF000017100E007E008F1010000F0FF08601C1B
:10400000C4B2042CA0DB00BF701C019009F10100B8
:1040100000F0FF09D94590DBBDE8FC9FF8B50546E7
:104020000F4630A1384603F0FDFC06460621304617
:10403000FFF7C0FD0446FF2C05D030196946FFF795
:10404000DDFD85F84E0007213046FFF7B3FD04463D
:10405000FF2C05D030196946FFF7D0FD85F84F00D9
:1040600009213046FFF7A6FD0446FF2C05D0301984
:104070006946FFF7C3FDC5F86300F8BD2DE9F843B5
:104080000546884619A1404603F0CCFC06460221AD
:104090003046FFF78FFD0446FF2C05D030196946E6
:1040A000FFF7ACFD85F85C00002726E0F81CC1B2E4
:1040B0003046FFF77FFD0446FF2C1BD030196946C0
:1040C000FFF79CFDC1B205F15000C15513E000009F
:1040D0004750524D430000000000704224475047B3
:1040E000535600002447504747410000244750479B
:1040F0005341000003E0781CC7B20C2FD6DB00BF91
:104100000F213046FFF756FD0446FF2C05D030192D
:104110006946FFF773FDA5F85D0010213046FFF7F3
:1041200049FD0446FF2C05D030196946FFF766FDAE
:10413000A5F85F0011213046FFF73CFD0446FF2C37
:1041400005D030196946FFF759FDA5F86100BDE8B3
:10415000F883F8B504460D46D2A1284603F062FC68
:10416000064607213046FFF725FD0746FF2F16D0EC
:10417000F0196946FFF742FDA4F867009DF80000BA
:1041800003280CDA9DF80000C0F10300C1B20A2038
:10419000FFF729FDB4F867104843A4F86700F8BD9D
:1041A0002DE9F0410446B4F83D10C0A004F0C8F871
:1041B0003F20015DC0A004F0C3F84020015DC1A014
:1041C00004F0BEF84120005D0830182190FBF1F2A8
:1041D00001FB12052946BEA004F0B2F84220015DA1
:1041E000BEA004F0ADF84320015DBEA004F0A8F825
:1041F00094F84810BDA004F0A3F8606C03F08DFEA5
:104200008046BD4903F0BAFC054603F0C9FE0646E8
:1042100032460B46B9A004F093F894F84D10B8A0BC
:1042200004F08EF8D4F8490003F077FE8046B249D6
:1042300003F0A4FC054603F0B3FE064632460B46E7
:10424000B2A004F07DF8BDE8F08170B50446267890
:104250002178B0A004F074F8B54804F071F8002596
:1042600022E005EB8502601C815CB2A004F068F8D6
:1042700005EB8502601C10444178AEA004F060F8A4
:1042800005EB8502601C10444188AAA004F058F890
:1042900005EB8502601C10440179A8A004F050F8D9
:1042A000A7A004F04DF86D1CB542DADB70BD2DE916
:1042B000FC410446D4F8630003F026FE8046A14981
:1042C00003F05CFC054603F06BFECDE9000194F8B9
:1042D0004F2094F84E109C4804F032F8BDE8FC8161
:1042E0002DE9F04F87B004465D34A08803F015FE39
:1042F0008346964903F042FC824603F051FE054690
:104300000E46608803F009FE8346904903F036FCB0
:10431000824603F045FE07468846208803F0FDFDEF
:1043200083468A4903F02AFC824603F039FECDE930
:104330000078CDE90256CDE9040114F8011C5D3C7A
:10434000024683A0059B03F0FBFF8BA003F0F8FF60
:104350004FF0000908E004F1500010F8091060A0C7
:1043600003F0EEFF09F1010994F84F004845F2DC33
:1043700073A003F0E5FF07B0BDE8F08F2DE9F04131
:104380000446B4F8670003F0C8FD80467C4903F09A
:10439000F5FB054603F004FE064632460B4679A0BF
:1043A00003F0CEFFBDE8F08170B504460D46294606
:1043B0002046FFF798FC29462046FFF79EFD294638
:1043C0002046FFF72BFE29462046FFF757FE2946D9
:1043D0002046FFF7BEFE70BD2DE9F04786B00446CB
:1043E0004020035D3F20025DB4F83D1069A003F05A
:1043F000A7FF4120005D0830182190FBF1F201FB7E
:1044000012054320035D4220025D294665A003F0AA
:1044100097FF453454F8010C03F07FFD824636497E
:1044200003F0ACFB814603F0BBFD05460E46606819
:1044300003F073FD8246304903F0A0FB814603F090
:10444000AFFD0746E078CDE902560490207A3A465F
:104450000B46009056A003F073FF608C03F05DFDE7
:104460008046474903F08AFB054603F099FD06465E
:1044700032460B4653A003F063FFD4F81E00453CC0
:1044800003F042FD80462F4903F078FB054603F018
:1044900087FD064632460B464DA003F051FF06B09D
:1044A000BDE8F08724475056544700007965617293
:1044B0003A256420000000006D6F6E74683A256430
:1044C00020000000646174653A256420000000004B
:1044D000686F75723A256420000000006D696E3ABD
:1044E000256420007365633A256420002563206CF1
:1044F000617469743A0000000050C34725662000CB
:104500002563206C6F6E67693A00000025660D0A0E
:1045100000000000736174656C6C697465732069D8
:104520006E2076696577206973202564200D0A0066
:104530009898000825640909090000002564000016
:104540000D0A000000002041EC9800080000C8425D
:104550006D6F64653A2025640950444F503A202518
:104560002E33660948444F503A252E336609564487
:104570004F503A252E3366000D0A4E4F3A00000088
:1045800000007A4473706565643A2025660D0A0D53
:104590000A00000074696D653A2025642F25642F98
:1045A0002564200025643A25643A25640A00000049
:1045B0006C6F636174653A20256625632025662546
:1045C000630A000073706565643A2025660D0A0071
:1045D0006865696768743A20252E33660A0A000008
:1045E00010B5044624B900216848FDF775FB10BDDD
:1045F00000216648FDF704FE01216448FDF76CFBCD
:1046000000BFF4E710B540F225516148FEF702F80B
:1046100020B35F48FDF77EFFC4B25E480088B0F566
:10462000967F15DA00215948FDF7EAFD59480088C0
:1046300010B90120FFF7D4FF564801880088401CBC
:10464000544A10805448445400211288815405E093
:104650005048008840F400404E49088010BD7FB5A6
:1046600005460C4601210220FCF785FCADF80450FC
:10467000ADF800400020ADF80600ADF80200694634
:104680004248FCF7CDFF012211464048FDF73FFBB1
:104690001D208DF80C0000208DF80D0001208DF8F4
:1046A0000E008DF80F0003A8FBF753FE7FBD10B579
:1046B00086B0044601211120FCF750FC0121C804FA
:1046C000FCF759FC0420ADF8100003208DF812000F
:1046D00018208DF8130004A93048FCF71DF94FF499
:1046E0000060ADF8100004208DF8130004A92B48D9
:1046F000FCF712F900940020ADF80400ADF80600B4
:10470000ADF80800ADF80C000C20ADF80A006946C1
:104710001F48FDF702FE01211D48FDF78AFE012218
:1047200040F225511A48FDF790FE34208DF8140010
:1047300000208DF8150002208DF8160001208DF85C
:10474000170005A8FBF705FE41F61F416320FFF7A0
:1047500086FF00200F490880FFF742FF06B010BD1A
:1047600010B501210948FDF780FD00B910BD0948C9
:10477000008840F400400749088001210348FDF704
:1047800085FD0020FFF72CFF00BFEFE7000400408D
:10479000004C00403C0000201403002000100140A9
:1047A00008B501212020FCF7D9FB0420ADF800005A
:1047B00003208DF8020048208DF8030069463D482B
:1047C000FCF7AAF808BD10B5044614B101203A4917
:1047D00008703948007888B104213648FCF72FF971
:1047E00060B90A2002F005FB00203349087004215B
:1047F0003048FCF724F948B9012010BD04212D48A8
:10480000FCF71DF9012801D12B4908700020F4E7BD
:104810007FB505460C4601210420FCF7ACFBADF842
:104820000450ADF800400020ADF80600ADF80200DD
:1048300069462248FCF7F4FE012211461F48FDF7A5
:1048400066FA1E208DF80C0001208DF80D00022064
:104850008DF80E0001208DF80F0003A8FBF779FDFD
:1048600001211648FDF738FA7FBD10B50121134824
:10487000FDF7FBFC00B910BD1148017811A003F051
:104880005FFD0F480078401CC0B20D4908700A282F
:1048900009D102200F49087000210848FDF71CFAD1
:1048A00000200749087001210448FDF7EFFC00BF14
:1048B000E1E70000001401403F0000200008004034
:1048C0003E000020636F756E74203D3D2025640D11
:1048D0000A0000002800002008B501210820FCF78C
:1048E0003DFB4FF48070ADF8000010208DF8030000
:1048F00003208DF8020069460B48FCF70DF84FF4D1
:1049000080710948FCF7B7F808BD10B54FF4807105
:104910000548FCF7AEF810BD10B54FF480710248A1
:10492000FCF7A9F810BD0000000C014010B53820BC
:1049300000F0F9FA10BD10B5102000F0F4FA10BD27
:1049400010B5002406E0FF2000F0D4FAFF2801D1C2
:10495000012010BD601C04466FF07F418842F2D3F5
:104960000020F6E710B51021FE48FCF782F8FF2082
:1049700000F0C0FA10BD10B51021FA48FCF77BF822
:10498000FFF7DEFF012800D110BDFFF7EBFF00208D
:10499000FAE72DE9F04105460C4617464FF00008AE
:1049A000FFF7E0FFFF2000F0A5FAFFF7E4FF10B9E2
:1049B000FF20BDE8F08145F0400000F09BFA200E9A
:1049C00000F098FAC4F3074000F094FAC4F307200B
:1049D00000F090FAE0B200F08DFA384600F08AFA62
:1049E0000C2D02D1FF2000F085FA4FF01F0800BF08
:1049F000FF2000F07FFA064606F0800030B15FEA43
:104A00000800A8F1010101F0FF08F1D13046D0E71C
:104A100070B505464FF6FF7401E0601E84B2FF20BA
:104A200000F068FAA84201D0002CF6D10CB9FF20A2
:104A300070BD0020FCE770B504460D46FE20FFF770
:104A4000E7FF08B1002070BD04E0FF2000F052FA3B
:104A500004F8010B2800A5F101018DB2F5D1FF206A
:104A600000F048FAFF2000F045FA0120EBE770B5AE
:104A700006460D46FFF764FF08B9002070BD2846C2
:104A800000F038FAFD2D19D0002404E0305D00F06C
:104A900031FA601C84B2B4F5007FF7DBFF2000F030
:104AA00029FAFF2000F026FAFF2000F023FA04463E
:104AB00004F01F00052801D00220DFE70120DDE718
:104AC00070B50546012200210A20FFF762FF044667
:104AD00024B910212846FFF7AEFF0446FFF742FF36
:104AE0000CB1002070BD0120FCE770B50546012225
:104AF00000210920FFF74DFF044624B91021284664
:104B0000FFF799FF0446FFF72DFF0CB1002070BDA1
:104B10000120FCE77FB56846FFF7E7FF10B10020F2
:104B200004B070BD9DF8000000F0C000402809D11D
:104B30009DF809009DF8081000EB0120401C84B28C
:104B4000A50220E09DF8050000F00F009DF80A1076
:104B500000EBD1109DF8091001F0030100EB4100BA
:104B6000861C9DF8080080119DF8071000EB81005D
:104B70009DF8061001F0030100EB8120441CA6F112
:104B8000090004FA00F52846CAE7F8B500F06AF90A
:104B9000FFF7CCFE002503E0FF2000F0ABF96D1C11
:104BA0000F2DF9DB4FF4FA7600BF9522002108465D
:104BB000FFF7EFFE0446012C04D0301EA6F10101E0
:104BC0008EB2F2DC002068490870012C01D001206F
:104BD000F8BD87224FF4D5710820FFF7DAFE0446AE
:104BE000012C45D1002505E0FF2000F083F90DF8E8
:104BF00005006D1C042DF7DB9DF80200012878D11B
:104C00009DF80300AA2874D14FF6FE7600BF01225A
:104C100000213720FFF7BDFE012291072920FFF771
:104C2000B8FE044624B13000A6F101018EB2EED1E7
:104C3000002E5ED0012200213A20FFF7AAFE0028B4
:104C400057D1002505E0FF2000F054F90DF80500CC
:104C50006D1C042DF7DB9DF8000000F0400018B13A
:104C600006204149087044E004203F49087040E0B4
:104C7000012200213720FFF78CFE0122002129208C
:104C8000FFF787FE0446012C17DC02203649087026
:104C90004FF6FE7600BF012200213720FFF779FE94
:104CA000012200212920FFF774FE0446BCB1300028
:104CB000A6F101018EB2EED111E001202A4908705F
:104CC0004FF6FE7600BF012200211046FFF761FE7D
:104CD000044624B13000A6F101018EB2F3D12EB109
:104CE000012251021020FFF754FE10B100201E498E
:104CF0000870FFF737FEFFF71EFE1B48007808B16B
:104D0000002065E70CB1204662E7AA2060E72DE9A4
:104D1000F04106460F46154613480078062800D095
:104D20007F02012D0DD11924012239461120FFF7F0
:104D300030FE044624BB69023046FFF77CFE044681
:104D40001EE0012239461220FFF723FE044600BF71
:104D50004FF400713046FFF76EFE044606F500760C
:104D6000681E03E00008014040000020C0B20500BA
:104D700001D0012CECD0012200210C20FFF709FE0C
:104D8000FFF7F0FD2046BDE8F0812DE9F041064631
:104D90000F46154631480078062800D07F02012DC5
:104DA0000CD1012239461820FFF7F3FD04466CBBF5
:104DB000FE213046FFF75BFE044627E027480078D7
:104DC000012809D0012200213720FFF7E2FD01224E
:104DD00029461720FFF7DDFD012239461920FFF78C
:104DE000D8FD044694B900BFFC213046FFF73FFED2
:104DF000044606F50076681EC0B2050001D0012CFD
:104E0000F2D0FD210020FFF732FE0446FFF7AAFD95
:104E10002046BDE8F08110B5052403E04FF4FA7098
:104E200001F0E7FF601E041E03DDFFF7AEFE002861
:104E3000F4D10CB1012010BD0020FCE770B505468F
:104E4000012229460648FFF762FF28B1002400E04E
:104E5000641CB4F5007FFBDB70BD00004000002047
:104E60004004002000B587B0012141F20400FCF7A6
:104E700075F8E020ADF8040003208DF80600182036
:104E80008DF8070001A93148FBF746FD1020ADF869
:104E900004008DF8070001A92C48FBF73DFDF02127
:104EA0002A48FBF7E6FD0020ADF808004FF48270B9
:104EB000ADF80A000120ADF810000220ADF80E0098
:104EC0000020ADF80C004FF40070ADF8120008207F
:104ED000ADF814000020ADF816000720ADF818005A
:104EE00002A91B48FCF768F901211948FCF709FAE7
:104EF00007B000BD10B5044600BF02211448FCF7FE
:104F000084FA0028F9D021461148FCF72BFA00BF9B
:104F100001210F48FCF779FA0028F9D00C48FCF77A
:104F200023FAC0B210BD10B50446094800884FF6F8
:104F3000C771084006490880084600882043088059
:104F400001210348FCF7DDF910BD00000008014015
:104F50000030014008B501214FF49070FBF7FEFFCF
:104F60004FF40050ADF8000048208DF803000320F6
:104F70008DF8020069469648FBF7CEFC4FF40051CD
:104F80009348FBF776FD0820ADF8000010208DF85F
:104F9000030069468F48FBF7BFFC08218D48FBF7EB
:104FA00068FD8B48406820F47000894948600846D5
:104FB000406840F44010486008BD10B501208649A3
:104FC00008608649C1F88C01322001F0EEFE002015
:104FD00081490860322001F0E8FE00207F49C1F8D5
:104FE0008C0110BD10B500207B490860322001F013
:104FF000DCFE01207949C1F88C01322001F0D5FE98
:10500000012075490860322001F0CFFE10BD10B5B7
:10501000322001F0CAFE01206F4908606F49C1F8D3
:105020008C01322001F0C1FE00206D490860322061
:1050300001F0BBFE00206B49C1F8B401322001F041
:10504000B4FE10BD70B5044600261AE004F08000DE
:1050500018B101206049086002E000205E49086044
:105060006006040E322001F0A0FE01205C490860B9
:10507000322001F09AFE00205849C1F88C01701CC2
:10508000C6B2082EE2DB5248406820F47000504956
:1050900048600846406840F400004860322001F053
:1050A00084FE01204E490860322001F07EFE4D480A
:1050B000D0F8340108B1012500E00025002048495E
:1050C00008604348406820F4700041494860084641
:1050D000406840F440104860284670BD70B5002418
:1050E0003B48406820F470003949486008464068F1
:1050F00040F400004860082515E0322001F055FE1C
:105100000120374908606006040E3648D0F83401A3
:1051100008B1601CC4B2322001F047FE00203049C3
:105120000860681EC5B2002DE7DC2948406820F4FD
:105130007000274948600846406840F440104860C5
:10514000204670BD70B505460C460026FFF735FFBA
:105150006020FFF777FF00B10126642001F025FEF3
:105160002846FFF76FFF00B10126642001F01DFE05
:105170002046FFF767FF00B10126FFF733FF3046F7
:1051800070BD70B504460025FFF717FF6020FFF7DC
:1051900059FF642001F009FE2046FFF753FF642009
:1051A00001F003FEFFF71EFF642001F0FEFDFFF794
:1051B00004FF6120FFF746FF642001F0F6FDFFF7D2
:1051C0008DFF0546FFF723FFFFF70CFF284670BD54
:1051D0000020014000140140B4012442008022421A
:1051E0008C81224200002442014600BF704700BF6C
:1051F000494A128802F04002002AF9D0C2B2464B56
:105200001B1D1A80704710B586B00446012144F278
:105210000400FBF7A3FE4FF40070ADF81400032068
:105220008DF8160018208DF8170005A93B48FBF7EC
:1052300073FB4FF48060ADF8140004208DF8170064
:1052400005A93648FBF768FB25208DF800000320F0
:105250008DF801008DF8020001208DF803006846EA
:10526000FBF777F801940020ADF80800ADF80A00CC
:10527000ADF80C00ADF810000C20ADF80E0001A93F
:105280002548FDF74AF8012240F225512248FDF752
:10529000DCF801212048FDF7CCF806B010BD10B5B0
:1052A00040F225511C48FDF7B5F910B31A48FDF737
:1052B00031F9C4B21A48008800F40040C8B918484F
:1052C000008800F4804060B10A2C03D0002014490B
:1052D000088020E01248008840F40040104908800F
:1052E00019E00D2C06D10E48008840F480400C498E
:1052F000088010E00A480088C0F30D0009490C54EA
:1053000007480088401C0649088008460088C728CE
:1053100001DD0020088010BD003801400008014078
:10532000480000204006002070B503460C4603E00C
:1053300014F8015B03F8015B1500A2F10102F7D13B
:1053400070BD30B5034601E003F8011B1400A2F163
:105350000102F9D130BD10B504467A4951F8241044
:105360004A00794951F824000021FFF7EAFF774904
:1053700051F824207449083951F824000021FFF71E
:10538000E0FF012170480830015510BD10B50146FD
:105390000023002207E06C4850F8210030F812008A
:1053A00000B15B1C521C674850F821009042F2D8B3
:1053B00064205843634C54F82140B0FBF4F0C0B271
:1053C00010BD2DE9F04704460F460025A9465E486A
:1053D0000830005D20B95C481038016820468847D5
:1053E0001FB94FF0FF30BDE8F087594850F824004E
:1053F000B7FBF0F6564850F82400B7FBF0F100FB7D
:10540000117000B1761C4F4850F82400451E20E072
:105410004D4850F8240030F8150010B909F1010981
:1054200001E04FF00009B14512D14FF0000808E04B
:10543000454850F8240005EB080220F8126008F1F6
:105440000108B045F4D3424850F824006843CAE745
:105450006D1E002DDCDA4FF0FF30C4E72DE9F0417E
:1054600004460E4638480830005D38B936481038D2
:105470000168204688470120BDE8F081334850F894
:105480002400B04217D9324850F82400B6FBF0F19E
:105490002D4850F8240030F81120002507E00023A3
:1054A000294850F824004F1920F817306D1C9542F8
:1054B000F5DB0020E0E70220DEE770B505460C468C
:1054C00004B970BD2048083850F82500261A314626
:1054D0002846FFF7C3FF00BFF3E770B504460E464A
:1054E00031462046FFF76DFF0546681C08B90020CD
:1054F00070BD1548083850F824002844F8E72DE915
:10550000F04104460F46164631462046FFF759FF44
:105510000546681C10B90020BDE8F0810A49083929
:1055200051F82410481932463946FFF7FDFE394636
:105530002046FFF7C2FF0448083850F824002844EA
:10554000EAE70000449700085C0000205497000838
:105550004C970008014631B1012905D0022904D039
:10556000032905D102E000BF00BF00BF0020704743
:105570000120FCE770B5054635B1012D0CD0022D98
:105580000BD0032D0CD109E0FFF7FFFA04460CB94C
:10559000002070BD0120FCE700BF00BF0020F8E73D
:1055A0000120F6E72DE9F04106460F4690461C46DD
:1055B00014B90420BDE8F0815EB9E2B24146384634
:1055C000FFF7A5FB0546012D01D10020F2E70120E0
:1055D000F0E70120EEE72DE9F04106460F46904640
:1055E0001C4614B90420BDE8F0815EB9E2B2414620
:1055F0003846FFF7CAFB0546012D01D10020F2E72E
:105600000120F0E70420EEE703460BB900207047C5
:105610000420FCE70020704770B503460C4603E009
:1056200014F8015B03F8015B1500A2F10102F7D148
:1056300070BD30B5034601E003F8011B1400A2F170
:105640000102F9D130BDF0B503461C460D460020DD
:1056500000BF1600A2F1010207D014F8017B15F873
:1056600001CBA7EB0C063000F3D0F0BD024600E002
:10567000521C107810B110788842F9D11078704718
:105680002DE9F041044600272079F8B1E56A6078F9
:1056900001232A4604F13001FFF79DFF08B10127DD
:1056A00014E000202071206A281AA16988420DD2D6
:1056B000E67809E0A0690544607801232A4604F1F0
:1056C0003001FFF788FF761E022EF3D23846BDE880
:1056D000F08170B504460D460026E06AA84210D05D
:1056E0002046FFF7CDFF06465EB9607801232A46C3
:1056F00004F13001FFF756FF10B14FF0FF350126DE
:10570000E562304670BD70B504462046FFF7B8FF2D
:105710000546002D59D1207803284FD16079012802
:105720004CD14202002104F13000FFF782FF5521E5
:1057300084F82E12AA2184F82F12522084F8300007
:105740005221312001556121322001554121332060
:105750000155722184F8141284F81512412184F83D
:105760001612612184F81712217C84F81812208AFD
:10577000010A84F819122069010C84F81A122069B0
:10578000010E84F81B12217B84F81C12A089010AE7
:1057900084F81D12E068010C84F81E12E068010E06
:1057A00084F81F12E069401CE0626078012304F174
:1057B0003001E26AFFF70FFF00206071607800227D
:1057C0001146FFF721FF00B10125284670BD0246B2
:1057D000891E5069801E884201D800207047937846
:1057E000906A01FB0300F9E72DE9F04705460C46F6
:1057F000022C02D36869A04202D84FF0010969E087
:105800004FF0FF392878012804D002282ED0032831
:105810005CD13FE0274607EB5707286A00EB57218A
:105820002846FFF756FF00B153E038467F1CC0F30F
:10583000080105F1300010F80180286A00EB5721BB
:105840002846FFF746FF00B143E0C7F3080105F122
:105850003000405C48EA002804F0010010B14FEA33
:10586000181001E0C8F30B00814632E0286A00EB13
:1058700014212846FFF72DFF00B12AE040F2FF1067
:1058800000EA440105F130000E183078717840EAE2
:1058900001291EE0286A00EBD4112846FFF719FF02
:1058A00000B116E040F2FF1000EA840105F130007B
:1058B0000E18F0780006B17840EA0140717840EAAD
:1058C00001203178084320F0704902E04FF00109CF
:1058D00000BF00BF4846BDE8F0872DE9F047054608
:1058E0000E461746022E02D36869B04202D84FF026
:1058F000020890E02878012804D0022844D0032828
:105900007ED159E0B14609EB5909286A00EB5921CB
:105910002846FFF7DEFE8046B8F1000F00D079E0A0
:10592000484609F10109C0F3080105F130000C18DF
:1059300006F0010020B1F9B2207861F31F1000E0F9
:105940003846207001202871286A00EB592128462A
:10595000FFF7BFFE8046B8F1000F00D05AE0C9F350
:10596000080105F130000C1806F0010010B1C7F372
:10597000071005E0207800F0F000C7F3032108438A
:1059800020700120287145E0286A00EB1621284686
:10599000FFF79FFE8046B8F1000F00D03AE040F2DA
:1059A000FF1000EA460105F130000C182770380A94
:1059B0006070012028712DE0286A00EBD61128467E
:1059C000FFF787FE8046B8F1000F00D022E040F2DA
:1059D000FF1000EA860105F130000C18E07800069F
:1059E000A17840EA0140617840EA0120217808432B
:1059F00000F0704007432770380A6070380C00E0F0
:105A000005E0A070380EE0700120287102E04FF030
:105A1000020800BF00BF4046BDE8F0872DE9F04115
:105A200004460E46022E02D36069B04201D8022716
:105A300027E0002721E031462046FFF7D5FE054646
:105A400005B91DE0012D01D1022719E0681C08B934
:105A5000012715E0002231462046FFF73EFF0746AA
:105A600007B10DE02069401C30B12069401C206165
:105A7000607940F0010060712E466069B042DAD86A
:105A800000BF3846BDE8F0812DE9F047044689465D
:105A9000B9F1000F06D1E76817B16069B84215D8AF
:105AA000012713E049462046FFF79EFE0646022ED8
:105AB00002D20120BDE8F087701C08B93046F9E732
:105AC0006069B04201D93046F4E74F463D4600BF19
:105AD0006D1C6069A84204D80225BD4201D900208E
